:040000008A15002835
:06000600000000000800EC
:0E000C00213083120313FD00FD0B0A280800AB
:10001A000F3083120313FC004730FD00FD0B132839
:0A002A00FC0B132800000000080082
:0E003400F201F101F001F801F30100300800C3
:1000420083120313F801F9011030FC00710DF80D51
:10005200F90D7408F8027508031C750FF9020318EC
:1000620039287408F80775080318750FF907031083
:0A007200F00DF10DFC0B272808002B
:10007C0083160313C51B4528831288134728831244
:10008C0088178316451B4D28831208134F2883129B
:10009C0008178316C51A55288312881257288312FD
:1000AC0088168316451A5D28831208125F2883125E
:1000BC0008166F1863280815642808118815032082
:1000CC0088118316C5196D28831288136F28831223
:1000DC0088178316451975288312081377288312FD
:1000EC0008178316C5187D28831288127F2883125F
:1000FC0088168316451885288312081287288312C0
:10010C0008166F188B2808158C28081188150320E1
:0E011C0088116F1C93280D20942806200800DF
:10012A007B15FB1F9F280130F300F201F101F0015A
:08013A00FA0DF20CFF30080081
:08014200FA1FF213003008005F
:10014A0083160313C301053043020318B328430877
:10015A004207840020308000C30AA82843084207C7
:10016A0084008001C30343084207C4000A30F40034
:10017A00F5014008F0004108F10021207808F0005C
:10018A007908F1003030F0078316440884007008BB
:10019A0080000A30F400F5014008F0004108F1003F
:1001AA00212070088316C0007108C1000030710652
:1001BA00031DE12800307006031DE428E628C30366
:0401CA00B828080049
:1001CE00FB14FB1FF128FF30F300F200F100F000EA
:0801DE00FA0DF20CFF300800DD
:1001E600831203136F1083164008C5003E206F1458
:0201F6000800FF
:1001F800831203132230FC00F801F901FA01FB0114
:10020800FC03031932290310FB0CFA0CF90CF80C47
:10021800F30CF20CF10CF00C031C0429FC03031979
:1002280024297408F80775080318750FF907760864
:100238000318760FFA0777080318770FFB070829C2
:100248007408F80775080318750FF9077608031876
:0E025800760FFA0777080318770FFB070800E8
:1002660083160313C003C0034008003C031840294B
:10027600C003000000000000372900000000000055
:060286000000000008006A
:0E028C00831203136E088A006D0882000800BA
:10029A00A1017208031D62297108F2007008F100B9
:1002AA00F001A1157208031D62297108F200F1011B
:1002BA00A11121167208031970292108F302031DDE
:1002CA00031C74290310F21B7829F00DF10DF20DAD
:1002DA00F30B682974290130FC001A207B290230AB
:0E02EA00FC0095207B290430FC00A1200800B8
:1002F800403083120313F0001F30F100F201F301C4
:020308000800EB
:10030A0083120313FB01FA01F901F801A001730D2D
:10031A00F80D7408F8027508031C750FF9027608BF
:10032A00031C760FFA027708031C770FFB02000101
:10033A00031C0130A002F30D0730FC00730DF80D09
:10034A00F90DFA0DFB0DA00D7408731CBE29F802F5
:10035A007508031C750FF9027608031C760FFA025A
:10036A007708031C770FFB020001031C0130A0026F
:10037A00CF29F80775080318750FF90776080318C7
:10038A00760FFA0777080318770FFB07000103189F
:10039A000130A007F30DFC0BA329720DF80DF90D1E
:1003AA00FA0DFB0DA00D7408731CED29F8027508EF
:1003BA00031C750FF9027608031C760FFA027708F8
:1003CA00031C770FFB020001031C0130A002FE2967
:1003DA00F80775080318750FF90776080318760FDA
:1003EA00FA0777080318770FFB0700010318013093
:1003FA00A007F20D0730FC00720DF80DF90DFA0D89
:10040A00FB0DA00D7408721C1C2AF8027508031C47
:10041A00750FF9027608031C760FFA027708031C97
:10042A00770FFB020001031C0130A0022D2AF807F6
:10043A0075080318750FF90776080318760FFA0777
:10044A0077080318770FFB07000103180130A0078C
:10045A00F20DFC0B012A710DF80DF90DFA0DFB0DC9
:10046A00A00D7408721C4B2AF8027508031C750F3C
:10047A00F9027608031C760FFA027708031C770F35
:10048A00FB020001031C0130A0025C2AF807750870
:10049A000318750FF90776080318760FFA07770815
:1004AA000318770FFB07000103180130A007F10DAD
:1004BA000730FC00710DF80DF90DFA0DFB0DA00DBA
:1004CA007408711C7A2AF8027508031C750FF90260
:1004DA007608031C760FFA027708031C770FFB02D3
:1004EA000001031C0130A0028B2AF80775080318C3
:1004FA00750FF90776080318760FFA0777080318B5
:10050A00770FFB07000103180130A007F10DFC0B60
:10051A005F2A700DF80DF90DFA0DFB0DA00D740888
:10052A00711CA92AF8027508031C750FF9027608CE
:10053A00031C760FFA027708031C770FFB020001EF
:10054A00031C0130A002BA2AF80775080318750FB0
:10055A00F90776080318760FFA0777080318770F52
:10056A00FB07000103180130A007F00D0730FC005B
:10057A00700DF80DF90DFA0DFB0DA00D7408701C25
:10058A00D82AF8027508031C750FF9027608031CAD
:10059A00760FFA027708031C770FFB020001031C8F
:1005AA000130A002E92AF80775080318750FF90740
:1005BA0076080318760FFA0777080318770FFB07F0
:1005CA00000103180130A007F00DFC0BBD2A7018BA
:1005DA00FC2A7408F80775080318750FF9077608D6
:1005EA000318760FFA0777080318770FFB07080036
:1005FA007B14FB1F082BF201FA1FFF30F200F100F7
:0A060A00F000FA0DF20CFF300800BA
:06061400FB15FF30080099
:10061A007C21E830F4000330F500F601F701FC20F4
:10062A0070088316BC007108BD007208BE0073080A
:10063A00BF003408F4003508F500F601F7018521FA
:10064A0070088316BC007108BD007208BE007308EA
:10065A00BF007008F5007108F6007208F700730809
:10066A00F800F80CF70CF60CF50CF813F80CF70C6C
:10067A00F60CF50CF8137508F0007608F100770807
:10068A00F2007808F300F30CF20CF10CF00CF313FF
:10069A007008B8007108B9007C2183163608F40086
:1006AA003708F500F601F701FC2083163808F9002F
:1006BA003908FA00FB01FC010330F8007908F4005C
:1006CA007A08F5007B08F6007C08F7007808031919
:1006DA00752BF40DF50DF60DF70D7410FF3E6C2B0E
:1006EA00852170088316BC007108BD007208BE001F
:1006FA007308BF000A30F4000030F5003808F00033
:10070A003908F100212070088316B8007108B90071
:10071A0000307102031D932B033070020318962BCD
:10072A00E32B200884003F08003C031DA62B3E084B
:10073A00003C031DA62B3D08003C031DA62B3C08CC
:10074A00003C0318E12B2208800439080319BD2B49
:10075A00BA01BB0100303B02031DB52B39083A022E
:10076A000318BD2BC0013321BA0A0319BB0AAF2BE8
:10077A003808C00033212108800539080319D52B10
:10078A00BA01BB0100303B02031DCD2B39083A02E6
:10079A000318D52BC0013321BA0A0319BB0AC72B88
:1007AA003808C00033210130BC02031CBD02031CFF
:0E07BA00BE02031CBF02982B21088005080018
:1007C80083120313FB0173080319212C7208FA0022
:1007D800F2178E30F302F31F242CF309F30A0830C2
:1007E8007302031C072CF300F10D7208F100F201EB
:1007F80008307302031C072CF300F10DF101730894
:10080800031D03100F2C730803190F2C0310F20C8F
:10081800F10CF30B0A2C7B1B711C192C031C192CD3
:10082800F10A0319F20AF21B302CFA1F332CF209D1
:10083800F109F10A0319F20A332CF201F101332C00
:100848007B14FB1F362CF201FA1F362CFF30F20006
:10085800F100FA0DF20C362C0130FC00382C003077
:10086800FC00382CFF30FC00FC0803193C2CFD224E
:0A0878007108F0007208F10008009A
:1008820083160313B501B6013408F2003408F300ED
:10089200720884000008203A031D542C35083604DF
:1008A200031D542C612C0130B5000030B6007208D3
:1008B20084000008F0007308840070088000F30AC6
:1008C2007208F100F20A710884000008003A031D60
:0808D200492C3408F000080075
:1008DA00831203137008F8007108F000F101F201A5
:1008EA00F301FB01FC019630F300FA01F01F832C9F
:1008FA00F809F009F80A0319F00AFA177008F10062
:0C090A007808F000F801F2014D2108000F
:1009160083160313B901BA013408BB003508BC00BD
:1009260080303506F00080307002031D9C2C0030AC
:1009360034020318AA2C0130B9000030BA0034087A
:10094600003CBB003508031C013EBC01BC023B0851
:10095600C0003C08C1003608C200A5200630B7001A
:100966000030B8003808003C031DBB2C3708003C9B
:100976000318D62C37083607F20001303702F0008C
:100986000030031C013E3802F1007008360784006F
:100996000008F00072088400700880000130B70279
:1009A600031CB803B52C36088400203080003908B3
:1009B6003A040319F42CB701B80137083607840046
:1009C6000008203A031DEB2CB70A0319B80AE02CDD
:1009D6000130B702031CB8033708360784002D30F0
:0409E6008000080085
:1009EA008316031388110811081288120813881332
:1009FA0083128811081188130813881208120D200F
:100A0A000D200D20881608168815032088110D2040
:100A1A008815032088110D208815032088110D20C0
:100A2A0008128815032088110D20881503208811C3
:100A3A00881288178815032088110D208813081634
:100A4A0088150320881108128815032088110D20A3
:100A5A0088150320881108168815032088110D208F
:100A6A00081288150320881188170817881608168F
:0C0A7A008815032088110D206F1408005F
:100A860046218A110A128000840AED0A0319EE0A29
:080A9600F003031D432D0800CD
:100A9E00831603133408A0003508F1000130F0006E
:100AAE00710803195E2DF00D7010FF3E582D700861
:100ABE00A200F0097008A10080303407840070088D
:0A0ACE0080058413700880050800FD
:100AD800831203137408003A031D872D7508003A22
:100AE800031D872D7608003A031D872D7708003AE5
:100AF800031D872DFF30F000FF30F1007F30F2003A
:100B0800FF30F300222E8312031377080319162EE1
:100B180073080319192E720876068039FA00F2173D
:100B2800F617A1017208F8007108FC007008FD00B2
:100B38007408FD027508031C750FFC027608031C77
:100B4800760FF802F801FC01FD01031CB22D031019
:100B5800F20CF10CF00CF80C0130A1007708F3024C
:100B6800031CBC2D7E302107F30703181C2EC12D52
:100B78007E302107F307031C1F2E1830FA07FD0DDE
:100B8800FC0DF80DF00DF10DF20DA10D7408F00239
:100B98007508031C750FF1027608031C760FF20224
:100BA800760DA104211CDA2D7D14E52D7408F007BB
:100BB80075080318750FF10776080318760AF20707
:100BC8007D10FA031F307A05031DC32D7B1B7D1C86
:100BD8000C2E0310F00DF10DF20DA10D7408F002AA
:100BE8007508031C750FF1027608031C760FF202D4
:100BF800760D21040139FD070318FC0A0319F80AC8
:100C0800031D0C2EF80CFC0CFD0CF30A03191C2E0A
:100C1800FA1FF8137808F2007C08F1007D08F0004C
:100C28000030212E01300A23212E02301A20212ED5
:0E0C38000430E720212E08309520000008002F
:100C4600352E803083160313B400482EC030B4000E
:100C5600482E9430B400482ED430B400482E80304C
:100C6600B400482E831603133408013A0319242EC0
:100C76003408023A0319292E3408033A03192C2E94
:100C86003408043A03192F2E322E3503F0003408A7
:100C9600F0077008B4007008C5003E206F10831678
:100CA600B70137083607840000080319632E370892
:100CB600360784000008C000F3208316B70A542EB6
:060CC60083126F14080008
:100D6400223084004B3083120313F0006630ED0010
:080D74000630EE0043250800E3
:101000008A11B2268A158A11F5248A1501308316B1
:10101000C5008A113E208A150C308316C5008A113E
:101020003E208A158316850110308600871107300F
:10103000B4000330B5008A114F258A150130B40081
:101040000130B5003230B6008A1123268A150230ED
:101050008316B4000130B5006230B6008A11232631
:101060008A150630FB001330FC00AD30FD00FD0B8F
:101070003728FC0B3728FB0B372800000000013015
:101080008316C5008A113E208A1501308316B400EC
:101090000130B5003F30B6008A1123268A15023090
:1010A0008316B4000130B5004D30B6008A112326F6
:1010B0008A150630FB001330FC00AD30FD00FD0B3F
:1010C0005F28FC0B5F28FB0B5F280000000001304D
:1010D0008316C5008A113E208A15103090008F01BA
:1010E0008E0106140630FD00FD0B7428000006106A
:1010F000061A7B2878281014061E7F287C281010DA
:101100000F08F100F0010E08F0040030F10470083F
:101110008316A3007108A4008A116D248A15AE30CD
:10112000F4004730F5006B30F6008430F7008A1188
:101130006C258A158A11E4238A1570088316A3008A
:101140007108A4007008013EF20000300318013E4F
:101150007107F3007208A3007308A40080307306BF
:10116000F00080307002031DB72802307202031CA9
:1011700083298030013AF000803024067002031D7C
:10118000C3282308903C031C832980302406F000E8
:1011900080307002031DCE2802302302031CF02889
:1011A0008030F000803024067002031DD928230807
:1011B0000F3C031CF0289030B4000130B5006430BF
:1011C000B6000030B7008A110D238A154E30FC009E
:1011D000EB30FD00FD0BEA28FC0BEA288312051416
:1011E000803083162406F00080307002031DFA2838
:1011F00010302302031C1F298030F00080302406A9
:101200007002031D052923081E3C031C1F29903072
:10121000B4000130B500C830B600B7018A110D2303
:101220008A150230FB003830FC00AD30FD00FD0BAC
:101230001729FC0B1729FB0B172983128514803003
:1012400083162406F00080307002031D29291F3008
:101250002302031C50298030F000803024067002E5
:10126000031D342923083C3C031C50299030B40052
:101270000130B5002C30B6000130B7008A110D23C3
:101280008A150330FB007030FC005C30FD00FD0B64
:101290004729FC0B4729FB0B472900008312051542
:1012A00083162308B4002408B500A530B6008A11BF
:1012B0008B248A15A530B4008A1141248A15013087
:1012C000C5008A113E208A1501308316B400013012
:1012D000B5005830B6008A1123268A1501308316CE
:1012E000B4000C30B500A530B6008A1123268A154B
:1012F00001308316B4000F30B5002F30B6008A11CC
:1013000023268A15932901308316C5008A113E20B1
:101310008A1501308316B4000130B5002230B600C2
:101320008A1123268A150530FB000F30FC00F130AE
:10133000FD00FD0B9929FC0B9929FB0B99296F28BE
:02134000A029E2
:100CCC004D3465346E347A3469346C342034643485
:0A0CDC006934733469342E34003497
:060CE60063346D3400349C
:100CEC005034613472346B342034533465346E3484
:0A0CFC0073346F3472347534003421
:100D060045346D34723465342034473475346C346C
:0C0D1600743465346B346934723400347A
:100D220045346E3465347334203449346C3465345C
:060D320072346934003444
:100D38004D346534733461346634653420343D345D
:040D4800203400341F
:100D4C0055347934673475346C3461346D346134B2
:060D5C0073346934003419
:02400E004A2F37
:00000001FF
